{
  "contractName": "SkteTokenIcoContract",
  "abi": [
    {
      "constant": true,
      "inputs": [],
      "name": "rate",
      "outputs": [
        {
          "name": "",
          "type": "uint256"
        }
      ],
      "payable": false,
      "stateMutability": "view",
      "type": "function",
      "signature": "0x2c4e722e"
    },
    {
      "constant": true,
      "inputs": [],
      "name": "reached",
      "outputs": [
        {
          "name": "",
          "type": "bool"
        }
      ],
      "payable": false,
      "stateMutability": "view",
      "type": "function",
      "signature": "0x2ec40ac8"
    },
    {
      "constant": true,
      "inputs": [],
      "name": "endTime",
      "outputs": [
        {
          "name": "",
          "type": "uint256"
        }
      ],
      "payable": false,
      "stateMutability": "view",
      "type": "function",
      "signature": "0x3197cbb6"
    },
    {
      "constant": true,
      "inputs": [
        {
          "name": "",
          "type": "address"
        }
      ],
      "name": "isWhitelisted",
      "outputs": [
        {
          "name": "",
          "type": "bool"
        }
      ],
      "payable": false,
      "stateMutability": "view",
      "type": "function",
      "signature": "0x3af32abf"
    },
    {
      "constant": true,
      "inputs": [
        {
          "name": "",
          "type": "uint256"
        }
      ],
      "name": "investors",
      "outputs": [
        {
          "name": "",
          "type": "address"
        }
      ],
      "payable": false,
      "stateMutability": "view",
      "type": "function",
      "signature": "0x3feb5f2b"
    },
    {
      "constant": true,
      "inputs": [],
      "name": "remain",
      "outputs": [
        {
          "name": "",
          "type": "uint256"
        }
      ],
      "payable": false,
      "stateMutability": "view",
      "type": "function",
      "signature": "0x61f3c62e"
    },
    {
      "constant": true,
      "inputs": [],
      "name": "startTime",
      "outputs": [
        {
          "name": "",
          "type": "uint256"
        }
      ],
      "payable": false,
      "stateMutability": "view",
      "type": "function",
      "signature": "0x78e97925"
    },
    {
      "constant": true,
      "inputs": [],
      "name": "owner",
      "outputs": [
        {
          "name": "",
          "type": "address"
        }
      ],
      "payable": false,
      "stateMutability": "view",
      "type": "function",
      "signature": "0x8da5cb5b"
    },
    {
      "constant": true,
      "inputs": [
        {
          "name": "",
          "type": "address"
        }
      ],
      "name": "isAdminlisted",
      "outputs": [
        {
          "name": "",
          "type": "bool"
        }
      ],
      "payable": false,
      "stateMutability": "view",
      "type": "function",
      "signature": "0x9f52b549"
    },
    {
      "constant": true,
      "inputs": [],
      "name": "hardcap",
      "outputs": [
        {
          "name": "",
          "type": "uint256"
        }
      ],
      "payable": false,
      "stateMutability": "view",
      "type": "function",
      "signature": "0xb071cbe6"
    },
    {
      "constant": true,
      "inputs": [],
      "name": "skte",
      "outputs": [
        {
          "name": "",
          "type": "address"
        }
      ],
      "payable": false,
      "stateMutability": "view",
      "type": "function",
      "signature": "0xedde4071"
    },
    {
      "constant": false,
      "inputs": [
        {
          "name": "newOwner",
          "type": "address"
        }
      ],
      "name": "transferOwnership",
      "outputs": [],
      "payable": false,
      "stateMutability": "nonpayable",
      "type": "function",
      "signature": "0xf2fde38b"
    },
    {
      "constant": true,
      "inputs": [],
      "name": "softcap",
      "outputs": [
        {
          "name": "",
          "type": "uint256"
        }
      ],
      "payable": false,
      "stateMutability": "view",
      "type": "function",
      "signature": "0xf89be593"
    },
    {
      "constant": true,
      "inputs": [
        {
          "name": "",
          "type": "address"
        }
      ],
      "name": "investor_token",
      "outputs": [
        {
          "name": "",
          "type": "uint256"
        }
      ],
      "payable": false,
      "stateMutability": "view",
      "type": "function",
      "signature": "0xff1e949d"
    },
    {
      "inputs": [
        {
          "name": "token",
          "type": "address"
        },
        {
          "name": "_startTime",
          "type": "uint256"
        },
        {
          "name": "_endTime",
          "type": "uint256"
        }
      ],
      "payable": false,
      "stateMutability": "nonpayable",
      "type": "constructor",
      "signature": "constructor"
    },
    {
      "payable": true,
      "stateMutability": "payable",
      "type": "fallback"
    },
    {
      "anonymous": false,
      "inputs": [
        {
          "indexed": true,
          "name": "_address",
          "type": "address"
        },
        {
          "indexed": false,
          "name": "_state",
          "type": "bool"
        }
      ],
      "name": "WhitelistSet",
      "type": "event",
      "signature": "0x0aa5ec5ffdc7f6f9c4d0dded489d7450297155cb2f71cb771e02427f7dff4f51"
    },
    {
      "anonymous": false,
      "inputs": [
        {
          "indexed": true,
          "name": "_address",
          "type": "address"
        },
        {
          "indexed": false,
          "name": "_state",
          "type": "bool"
        }
      ],
      "name": "AdminlistSet",
      "type": "event",
      "signature": "0x98034244f4ff860a3d4cd8c4e9023b03c0da841d97b0ce0d5f19a2ae1e3ec07e"
    },
    {
      "anonymous": false,
      "inputs": [
        {
          "indexed": true,
          "name": "beneficiary",
          "type": "address"
        },
        {
          "indexed": false,
          "name": "value",
          "type": "uint256"
        },
        {
          "indexed": false,
          "name": "amount",
          "type": "uint256"
        },
        {
          "indexed": false,
          "name": "time",
          "type": "uint256"
        }
      ],
      "name": "BuyTokens",
      "type": "event",
      "signature": "0x90d8b08a6c17cc6733ded05f205dd10dd0538fb7890449f561eedef38c91a6fa"
    },
    {
      "anonymous": false,
      "inputs": [
        {
          "indexed": false,
          "name": "time",
          "type": "uint256"
        }
      ],
      "name": "ManageICOResult",
      "type": "event",
      "signature": "0x639ffe248994c3bdbae78f4e62c9d970015e1ad0a23f6c8b69d64c55768c0cac"
    },
    {
      "anonymous": false,
      "inputs": [
        {
          "indexed": true,
          "name": "previousOwner",
          "type": "address"
        },
        {
          "indexed": true,
          "name": "newOwner",
          "type": "address"
        }
      ],
      "name": "OwnershipTransferred",
      "type": "event",
      "signature": "0x8be0079c531659141344cd1fd0a4f28419497f9722a3daafe3b4186f6b6457e0"
    },
    {
      "constant": false,
      "inputs": [
        {
          "name": "beneficiary",
          "type": "address"
        }
      ],
      "name": "buyTokens",
      "outputs": [],
      "payable": true,
      "stateMutability": "payable",
      "type": "function",
      "signature": "0xec8ac4d8"
    },
    {
      "constant": false,
      "inputs": [
        {
          "name": "_addr",
          "type": "address"
        },
        {
          "name": "_state",
          "type": "bool"
        }
      ],
      "name": "setAdminlist",
      "outputs": [],
      "payable": false,
      "stateMutability": "nonpayable",
      "type": "function",
      "signature": "0x0a9848ac"
    },
    {
      "constant": false,
      "inputs": [
        {
          "name": "_addr",
          "type": "address"
        }
      ],
      "name": "setWhitelist",
      "outputs": [],
      "payable": false,
      "stateMutability": "nonpayable",
      "type": "function",
      "signature": "0x854cff2f"
    },
    {
      "constant": false,
      "inputs": [
        {
          "name": "_addr",
          "type": "address[]"
        }
      ],
      "name": "setManyWhitelist",
      "outputs": [],
      "payable": false,
      "stateMutability": "nonpayable",
      "type": "function",
      "signature": "0xdc92beec"
    },
    {
      "constant": true,
      "inputs": [],
      "name": "hasEnded",
      "outputs": [
        {
          "name": "",
          "type": "bool"
        }
      ],
      "payable": false,
      "stateMutability": "view",
      "type": "function",
      "signature": "0xecb70fb7"
    },
    {
      "constant": true,
      "inputs": [],
      "name": "hasStarted",
      "outputs": [
        {
          "name": "",
          "type": "bool"
        }
      ],
      "payable": false,
      "stateMutability": "view",
      "type": "function",
      "signature": "0x44691f7e"
    },
    {
      "constant": false,
      "inputs": [
        {
          "name": "_rate",
          "type": "uint256"
        }
      ],
      "name": "setRate",
      "outputs": [
        {
          "name": "",
          "type": "bool"
        }
      ],
      "payable": false,
      "stateMutability": "nonpayable",
      "type": "function",
      "signature": "0x34fcf437"
    },
    {
      "constant": false,
      "inputs": [],
      "name": "manageICOResult",
      "outputs": [
        {
          "name": "",
          "type": "bool"
        }
      ],
      "payable": false,
      "stateMutability": "nonpayable",
      "type": "function",
      "signature": "0x5f72c3b9"
    },
    {
      "constant": true,
      "inputs": [
        {
          "name": "investor",
          "type": "address"
        }
      ],
      "name": "checkInvestorHoldingToken",
      "outputs": [
        {
          "name": "",
          "type": "uint256"
        }
      ],
      "payable": false,
      "stateMutability": "view",
      "type": "function",
      "signature": "0x62aa2d0d"
    },
    {
      "constant": false,
      "inputs": [],
      "name": "kill",
      "outputs": [],
      "payable": false,
      "stateMutability": "nonpayable",
      "type": "function",
      "signature": "0x41c0e1b5"
    }
  ],
  "bytecode": "0x60806040526969e10de76676d08000006002556a108b2a2c280290940000006003556000600460006101000a81548160ff02191690831515021790555060c860075534801561004d57600080fd5b5060405160608062001dac833981018060405281019080805190602001909291908051906020019092919080519060200190929190505050336000806101000a81548173ffffffffffffffffffffffffffffffffffffffff021916908373ffffffffffffffffffffffffffffffffffffffff160217905550600073ffffffffffffffffffffffffffffffffffffffff168373ffffffffffffffffffffffffffffffffffffffff161415151561010157600080fd5b60008211151561011057600080fd5b60008111151561011f57600080fd5b82600160006101000a81548173ffffffffffffffffffffffffffffffffffffffff021916908373ffffffffffffffffffffffffffffffffffffffff1602179055503373ffffffffffffffffffffffffffffffffffffffff16600160009054906101000a900473ffffffffffffffffffffffffffffffffffffffff1673ffffffffffffffffffffffffffffffffffffffff16638da5cb5b6040518163ffffffff167c0100000000000000000000000000000000000000000000000000000000028152600401602060405180830381600087803b1580156101fd57600080fd5b505af1158015610211573d6000803e3d6000fd5b505050506040513d602081101561022757600080fd5b810190808051906020019092919050505073ffffffffffffffffffffffffffffffffffffffff1614151561025a57600080fd5b8160058190555080600681905550600354600881905550505050611b2880620002846000396000f30060806040526004361061013e576000357c0100000000000000000000000000000000000000000000000000000000900463ffffffff1680630a9848ac146101a85780632c4e722e146101f75780632ec40ac8146102225780633197cbb61461025157806334fcf4371461027c5780633af32abf146102c15780633feb5f2b1461031c57806341c0e1b51461038957806344691f7e146103a05780635f72c3b9146103cf57806361f3c62e146103fe57806362aa2d0d1461042957806378e9792514610480578063854cff2f146104ab5780638da5cb5b146104ee5780639f52b54914610545578063b071cbe6146105a0578063dc92beec146105cb578063ec8ac4d814610631578063ecb70fb714610667578063edde407114610696578063f2fde38b146106ed578063f89be59314610730578063ff1e949d1461075b575b60011515600b60003373ffffffffffffffffffffffffffffffffffffffff1673ffffffffffffffffffffffffffffffffffffffff16815260200190815260200160002060009054906101000a900460ff16151514151561019d57600080fd5b6101a6336107b2565b005b3480156101b457600080fd5b506101f5600480360381019080803573ffffffffffffffffffffffffffffffffffffffff169060200190929190803515159060200190929190505050610869565b005b34801561020357600080fd5b5061020c6109ad565b6040518082815260200191505060405180910390f35b34801561022e57600080fd5b506102376109b3565b604051808215151515815260200191505060405180910390f35b34801561025d57600080fd5b506102666109c6565b6040518082815260200191505060405180910390f35b34801561028857600080fd5b506102a7600480360381019080803590602001909291905050506109cc565b604051808215151515815260200191505060405180910390f35b3480156102cd57600080fd5b50610302600480360381019080803573ffffffffffffffffffffffffffffffffffffffff169060200190929190505050610a69565b604051808215151515815260200191505060405180910390f35b34801561032857600080fd5b5061034760048036038101908080359060200190929190505050610a89565b604051808273ffffffffffffffffffffffffffffffffffffffff1673ffffffffffffffffffffffffffffffffffffffff16815260200191505060405180910390f35b34801561039557600080fd5b5061039e610ac7565b005b3480156103ac57600080fd5b506103b5610b5c565b604051808215151515815260200191505060405180910390f35b3480156103db57600080fd5b506103e4610b69565b604051808215151515815260200191505060405180910390f35b34801561040a57600080fd5b50610413610d90565b6040518082815260200191505060405180910390f35b34801561043557600080fd5b5061046a600480360381019080803573ffffffffffffffffffffffffffffffffffffffff169060200190929190505050610d96565b6040518082815260200191505060405180910390f35b34801561048c57600080fd5b50610495610ed2565b6040518082815260200191505060405180910390f35b3480156104b757600080fd5b506104ec600480360381019080803573ffffffffffffffffffffffffffffffffffffffff169060200190929190505050610ed8565b005b3480156104fa57600080fd5b50610503611078565b604051808273ffffffffffffffffffffffffffffffffffffffff1673ffffffffffffffffffffffffffffffffffffffff16815260200191505060405180910390f35b34801561055157600080fd5b50610586600480360381019080803573ffffffffffffffffffffffffffffffffffffffff16906020019092919050505061109d565b604051808215151515815260200191505060405180910390f35b3480156105ac57600080fd5b506105b56110bd565b6040518082815260200191505060405180910390f35b3480156105d757600080fd5b5061062f600480360381019080803590602001908201803590602001908080602002602001604051908101604052809392919081815260200183836020028082843782019150505050505091929192905050506110c3565b005b610665600480360381019080803573ffffffffffffffffffffffffffffffffffffffff1690602001909291905050506107b2565b005b34801561067357600080fd5b5061067c6111ba565b604051808215151515815260200191505060405180910390f35b3480156106a257600080fd5b506106ab6111f6565b604051808273ffffffffffffffffffffffffffffffffffffffff1673ffffffffffffffffffffffffffffffffffffffff16815260200191505060405180910390f35b3480156106f957600080fd5b5061072e600480360381019080803573ffffffffffffffffffffffffffffffffffffffff16906020019092919050505061121c565b005b34801561073c57600080fd5b50610745611371565b6040518082815260200191505060405180910390f35b34801561076757600080fd5b5061079c600480360381019080803573ffffffffffffffffffffffffffffffffffffffff169060200190929190505050611377565b6040518082815260200191505060405180910390f35b60011515600b60003373ffffffffffffffffffffffffffffffffffffffff1673ffffffffffffffffffffffffffffffffffffffff16815260200190815260200160002060009054906101000a900460ff16151514151561081157600080fd5b600073ffffffffffffffffffffffffffffffffffffffff168173ffffffffffffffffffffffffffffffffffffffff161415151561084d57600080fd5b60003411151561085c57600080fd5b610866813461138f565b50565b6000809054906101000a900473ffffffffffffffffffffffffffffffffffffffff1673ffffffffffffffffffffffffffffffffffffffff163373ffffffffffffffffffffffffffffffffffffffff161415156108c457600080fd5b600073ffffffffffffffffffffffffffffffffffffffff168273ffffffffffffffffffffffffffffffffffffffff161415151561090057600080fd5b80600c60008473ffffffffffffffffffffffffffffffffffffffff1673ffffffffffffffffffffffffffffffffffffffff16815260200190815260200160002060006101000a81548160ff0219169083151502179055508173ffffffffffffffffffffffffffffffffffffffff167f98034244f4ff860a3d4cd8c4e9023b03c0da841d97b0ce0d5f19a2ae1e3ec07e82604051808215151515815260200191505060405180910390a25050565b60075481565b600460009054906101000a900460ff1681565b60065481565b60008060009054906101000a900473ffffffffffffffffffffffffffffffffffffffff1673ffffffffffffffffffffffffffffffffffffffff163373ffffffffffffffffffffffffffffffffffffffff16141515610a2957600080fd5b6000600754111515610a3a57600080fd5b6005544210158015610a4e57506006544211155b1515610a5957600080fd5b8160078190555060019050919050565b600b6020528060005260406000206000915054906101000a900460ff1681565b600981815481101515610a9857fe5b906000526020600020016000915054906101000a900473ffffffffffffffffffffffffffffffffffffffff1681565b6000809054906101000a900473ffffffffffffffffffffffffffffffffffffffff1673ffffffffffffffffffffffffffffffffffffffff163373ffffffffffffffffffffffffffffffffffffffff16141515610b2257600080fd5b6000809054906101000a900473ffffffffffffffffffffffffffffffffffffffff1673ffffffffffffffffffffffffffffffffffffffff16ff5b6000600554421015905090565b60008060009054906101000a900473ffffffffffffffffffffffffffffffffffffffff1673ffffffffffffffffffffffffffffffffffffffff163373ffffffffffffffffffffffffffffffffffffffff16141515610bc657600080fd5b60065442111515610bd657600080fd5b600254600854600354031115610d4957610bee6115aa565b6000809054906101000a900473ffffffffffffffffffffffffffffffffffffffff1673ffffffffffffffffffffffffffffffffffffffff166108fc3073ffffffffffffffffffffffffffffffffffffffff16319081150290604051600060405180830381858888f19350505050158015610c6c573d6000803e3d6000fd5b50600160009054906101000a900473ffffffffffffffffffffffffffffffffffffffff1673ffffffffffffffffffffffffffffffffffffffff166342966c686008546040518263ffffffff167c010000000000000000000000000000000000000000000000000000000002815260040180828152602001915050602060405180830381600087803b158015610d0057600080fd5b505af1158015610d14573d6000803e3d6000fd5b505050506040513d6020811015610d2a57600080fd5b8101908080519060200190929190505050506000600881905550610d52565b610d5161177f565b5b7f639ffe248994c3bdbae78f4e62c9d970015e1ad0a23f6c8b69d64c55768c0cac426040518082815260200191505060405180910390a16001905090565b60085481565b60008073ffffffffffffffffffffffffffffffffffffffff168273ffffffffffffffffffffffffffffffffffffffff1614151515610dd357600080fd5b600160009054906101000a900473ffffffffffffffffffffffffffffffffffffffff1673ffffffffffffffffffffffffffffffffffffffff166370a08231836040518263ffffffff167c0100000000000000000000000000000000000000000000000000000000028152600401808273ffffffffffffffffffffffffffffffffffffffff1673ffffffffffffffffffffffffffffffffffffffff168152602001915050602060405180830381600087803b158015610e9057600080fd5b505af1158015610ea4573d6000803e3d6000fd5b505050506040513d6020811015610eba57600080fd5b81019080805190602001909291905050509050919050565b60055481565b60011515600c60003373ffffffffffffffffffffffffffffffffffffffff1673ffffffffffffffffffffffffffffffffffffffff16815260200190815260200160002060009054906101000a900460ff1615151480610f8357506000809054906101000a900473ffffffffffffffffffffffffffffffffffffffff1673ffffffffffffffffffffffffffffffffffffffff163373ffffffffffffffffffffffffffffffffffffffff16145b1515610f8e57600080fd5b600073ffffffffffffffffffffffffffffffffffffffff168173ffffffffffffffffffffffffffffffffffffffff1614151515610fca57600080fd5b6001600b60008373ffffffffffffffffffffffffffffffffffffffff1673ffffffffffffffffffffffffffffffffffffffff16815260200190815260200160002060006101000a81548160ff0219169083151502179055508073ffffffffffffffffffffffffffffffffffffffff167f0aa5ec5ffdc7f6f9c4d0dded489d7450297155cb2f71cb771e02427f7dff4f516001604051808215151515815260200191505060405180910390a250565b6000809054906101000a900473ffffffffffffffffffffffffffffffffffffffff1681565b600c6020528060005260406000206000915054906101000a900460ff1681565b60035481565b600060011515600c60003373ffffffffffffffffffffffffffffffffffffffff1673ffffffffffffffffffffffffffffffffffffffff16815260200190815260200160002060009054906101000a900460ff161515148061117057506000809054906101000a900473ffffffffffffffffffffffffffffffffffffffff1673ffffffffffffffffffffffffffffffffffffffff163373ffffffffffffffffffffffffffffffffffffffff16145b151561117b57600080fd5b600090505b81518110156111b6576111a9828281518110151561119a57fe5b90602001906020020151610ed8565b8080600101915050611180565b5050565b600080600060065442119150600460009054906101000a900460ff166111e15760006111e4565b60015b905081806111ef5750805b9250505090565b600160009054906101000a900473ffffffffffffffffffffffffffffffffffffffff1681565b6000809054906101000a900473ffffffffffffffffffffffffffffffffffffffff1673ffffffffffffffffffffffffffffffffffffffff163373ffffffffffffffffffffffffffffffffffffffff1614151561127757600080fd5b600073ffffffffffffffffffffffffffffffffffffffff168173ffffffffffffffffffffffffffffffffffffffff16141515156112b357600080fd5b8073ffffffffffffffffffffffffffffffffffffffff166000809054906101000a900473ffffffffffffffffffffffffffffffffffffffff1673ffffffffffffffffffffffffffffffffffffffff167f8be0079c531659141344cd1fd0a4f28419497f9722a3daafe3b4186f6b6457e060405160405180910390a3806000806101000a81548173ffffffffffffffffffffffffffffffffffffffff021916908373ffffffffffffffffffffffffffffffffffffffff16021790555050565b60025481565b600a6020528060005260406000206000915090505481565b60008060008073ffffffffffffffffffffffffffffffffffffffff168573ffffffffffffffffffffffffffffffffffffffff16141515156113cf57600080fd5b6113d8846118ae565b15156113e357600080fd5b6113f86007548561190c90919063ffffffff16565b925060006114118460085461194290919063ffffffff16565b11151561151f576001600460006101000a81548160ff021916908315150217905550600854915060006008819055506114556007548361195e90919063ffffffff16565b840390508473ffffffffffffffffffffffffffffffffffffffff166108fc829081150290604051600060405180830381858888f1935050505015801561149f573d6000803e3d6000fd5b506114aa8583611979565b8473ffffffffffffffffffffffffffffffffffffffff167f90d8b08a6c17cc6733ded05f205dd10dd0538fb7890449f561eedef38c91a6fa6114f5838761194290919063ffffffff16565b844260405180848152602001838152602001828152602001935050505060405180910390a26115a3565b6115348360085461194290919063ffffffff16565b6008819055506115448584611979565b8473ffffffffffffffffffffffffffffffffffffffff167f90d8b08a6c17cc6733ded05f205dd10dd0538fb7890449f561eedef38c91a6fa85854260405180848152602001838152602001828152602001935050505060405180910390a25b5050505050565b60008090505b60098054905081101561177c57600160009054906101000a900473ffffffffffffffffffffffffffffffffffffffff1673ffffffffffffffffffffffffffffffffffffffff1663a9059cbb60098381548110151561160a57fe5b9060005260206000200160009054906101000a900473ffffffffffffffffffffffffffffffffffffffff16600a600060098681548110151561164857fe5b9060005260206000200160009054906101000a900473ffffffffffffffffffffffffffffffffffffffff1673ffffffffffffffffffffffffffffffffffffffff1673ffffffffffffffffffffffffffffffffffffffff168152602001908152602001600020546040518363ffffffff167c0100000000000000000000000000000000000000000000000000000000028152600401808373ffffffffffffffffffffffffffffffffffffffff1673ffffffffffffffffffffffffffffffffffffffff16815260200182815260200192505050602060405180830381600087803b15801561173357600080fd5b505af1158015611747573d6000803e3d6000fd5b505050506040513d602081101561175d57600080fd5b81019080805190602001909291905050505080806001019150506115b0565b50565b60008090505b6009805490508110156118ab576009818154811015156117a157fe5b9060005260206000200160009054906101000a900473ffffffffffffffffffffffffffffffffffffffff1673ffffffffffffffffffffffffffffffffffffffff166108fc611872600754600a60006009878154811015156117fe57fe5b9060005260206000200160009054906101000a900473ffffffffffffffffffffffffffffffffffffffff1673ffffffffffffffffffffffffffffffffffffffff1673ffffffffffffffffffffffffffffffffffffffff1681526020019081526020016000205461195e90919063ffffffff16565b9081150290604051600060405180830381858888f1935050505015801561189d573d6000803e3d6000fd5b508080600101915050611785565b50565b600080600080600554421180156118c757506006544211155b9250600085119150600460009054906101000a900460ff166118ea5760016118ed565b60005b90508280156118f95750815b80156119025750805b9350505050919050565b6000808284029050600084148061192d575082848281151561192a57fe5b04145b151561193857600080fd5b8091505092915050565b600082821115151561195357600080fd5b818303905092915050565b600080828481151561196c57fe5b0490508091505092915050565b600073ffffffffffffffffffffffffffffffffffffffff168273ffffffffffffffffffffffffffffffffffffffff16141515156119b557600080fd5b6000811115156119c457600080fd5b6000600a60008473ffffffffffffffffffffffffffffffffffffffff1673ffffffffffffffffffffffffffffffffffffffff168152602001908152602001600020541115611a735760098290806001815401808255809150509060018203906000526020600020016000909192909190916101000a81548173ffffffffffffffffffffffffffffffffffffffff021916908373ffffffffffffffffffffffffffffffffffffffff160217905550505b80600a60008473ffffffffffffffffffffffffffffffffffffffff1673ffffffffffffffffffffffffffffffffffffffff1681526020019081526020016000205401600a60008473ffffffffffffffffffffffffffffffffffffffff1673ffffffffffffffffffffffffffffffffffffffff1681526020019081526020016000208190555050505600a165627a7a723058205e1a74296ba3421dc0750cbebb2661d09860fab5497b911c6f2408f648b7c8ef0029",
  "source": "pragma solidity 0.4.24;\r\n\r\n\r\nimport \"./SafeMath.sol\";\r\nimport \"./Ownable.sol\";\r\nimport \"./SkteToken.sol\";\r\n\r\ncontract SkteTokenIcoContract  is Ownable{\r\n    using SafeMath for uint256;\r\n    SkteToken public skte;\r\n\tuint256 public  softcap = 500000 * 1 ether;\r\n\tuint256 public  hardcap = 20000000 * 1 ether;\r\n\tbool    public  reached = false;\r\n\tuint    public  startTime ;\r\n\tuint    public  endTime ;\r\n\tuint256 public   rate = 200;\r\n\tuint256 public   remain;\r\n    address[] public investors;\r\n\r\n\tmapping  (address => uint256)    public   investor_token;\r\n\r\n    mapping(address => bool) public isWhitelisted;\r\n\tmapping(address => bool) public isAdminlisted;\r\n\r\n\tevent WhitelistSet(address indexed _address, bool _state);\r\n\tevent AdminlistSet(address indexed _address, bool _state);\r\n\tevent BuyTokens(address indexed beneficiary, uint256 value, uint256 amount, uint time);\r\n    event ManageICOResult(uint time);\r\n\r\n\tconstructor(address token, uint _startTime, uint _endTime) public{\r\n        require(token != address(0));\r\n        require(_startTime > 0);\r\n        require(_endTime > 0);\r\n\t\tskte = SkteToken(token);\r\n\t\trequire(skte.owner() == msg.sender);\r\n\t\t\r\n\t\tstartTime = _startTime; // 1530450000 2018-07-01 9:AM EDT\r\n\t\tendTime = _endTime; // 1535806800 2018-09-01 9:AM EDT\r\n\t\tremain = hardcap;\r\n\t}\r\n\r\n    modifier onlyOwners() { \r\n\t\trequire (isAdminlisted[msg.sender] == true || msg.sender == owner); \r\n\t\t_; \r\n\t}\r\n\r\n\tmodifier onlyWhitelisted() { \r\n\t\trequire (isWhitelisted[msg.sender] == true); \r\n\t\t_; \r\n\t}\r\n\r\n\t  // fallback function can be used to buy tokens\r\n\tfunction () public payable onlyWhitelisted{\r\n\t\tbuyTokens(msg.sender);\r\n\t}\r\n\r\n\t// low level token purchase function\r\n\tfunction buyTokens(address beneficiary) public payable onlyWhitelisted{\r\n        require(beneficiary != address(0));\r\n        require(msg.value > 0);\r\n\t\tbuyTokens(beneficiary, msg.value);\r\n\t}\r\n\r\n\tfunction buyTokens(address beneficiary, uint256 weiAmount) internal {\r\n\t\trequire(beneficiary != address(0));\r\n\t\trequire(validPurchase(weiAmount));\r\n\r\n\t\t// calculate token amount to be sent\r\n\t\tuint256 tokens = weiAmount.mul(rate);\r\n\t\t\r\n\t\tif(remain.sub(tokens) <= 0){\r\n\t\t\treached = true;\r\n\t\t\tuint256 real = remain;\r\n\t\t\tremain = 0;\r\n\t\t\tuint256 refund = weiAmount - real.div(rate);\r\n\t\t\tbeneficiary.transfer(refund);\r\n\t\t\tregisterTokenToInvestor(beneficiary, real);\r\n\t\t\temit BuyTokens(beneficiary, weiAmount.sub(refund), real, now);\r\n\t\t} else{\r\n\t\t\tremain = remain.sub(tokens);\r\n\t\t\tregisterTokenToInvestor(beneficiary, tokens);\r\n\t\t\temit BuyTokens(beneficiary, weiAmount, tokens, now);\r\n\t\t}\r\n\r\n\t}\r\n\r\n\tfunction registerTokenToInvestor(address beneficiary, uint256 tokenamount) internal {\r\n        require(beneficiary != address(0));\r\n        require(tokenamount > 0);\r\n\t\tif(investor_token[beneficiary] > 0)\r\n\t\t\tinvestors.push(beneficiary);\r\n\t\tinvestor_token[beneficiary] = investor_token[beneficiary] + tokenamount;\r\n\t}\r\n\r\n\tfunction transferTokenToInvestors() internal {\r\n\t\tfor (uint i=0; i<investors.length; i++) {\r\n\t\t\tskte.transfer(investors[i], investor_token[investors[i]]);\r\n\t\t}\r\n\t}\r\n\r\n\tfunction refundFunds() internal {\r\n\t\tfor (uint i=0; i<investors.length; i++) {\r\n\t\t\tinvestors[i].transfer(investor_token[investors[i]].div(rate));\r\n\t\t}\r\n\t}\r\n\r\n\t// low level transfer token\r\n\t// override to create custom token transfer mechanism, eg. pull pattern\r\n\tfunction transferToken(address beneficiary, uint256 tokenamount) internal {\r\n        require(beneficiary != address(0));\r\n        require(tokenamount > 0);\r\n\t\tskte.transfer(beneficiary, tokenamount);\r\n\t}\r\n\r\n\t// send ether to the fund collection wallet\r\n\t// override to create custom fund forwarding mechanisms\r\n\tfunction forwardFunds(uint256 weiAmount) internal {\r\n        require(weiAmount > 0);\r\n\t\towner.transfer(weiAmount);\r\n\t}\r\n\r\n\t// @return true if the transaction can buy tokens\r\n\tfunction validPurchase(uint256 weiAmount) internal view returns (bool) {\r\n\t\tbool withinPeriod = now > startTime && now <= endTime;\r\n\t\tbool nonZeroPurchase = weiAmount > 0 ether;\r\n\t\tbool withinSale = reached ? false : true;\r\n\t\treturn withinPeriod && nonZeroPurchase && withinSale;\r\n\t}\r\n\r\n    function setAdminlist(address _addr, bool _state) public onlyOwner {\r\n        require(_addr != address(0));\r\n\t\tisAdminlisted[_addr] = _state;\r\n\t\temit AdminlistSet(_addr, _state);\r\n\t}\r\n\r\n    function setWhitelist(address _addr) public onlyOwners {\r\n        require(_addr != address(0));\r\n        isWhitelisted[_addr] = true;\r\n        emit WhitelistSet(_addr, true);\r\n    }\r\n\r\n    ///@notice Set whitelist state for multiple addresses\r\n    function setManyWhitelist(address[] _addr) public onlyOwners {\r\n        for (uint256 i = 0; i < _addr.length; i++) {\r\n            setWhitelist(_addr[i]);\r\n        }\r\n    }\r\n\r\n\t// @return true if presale event has ended\r\n\tfunction hasEnded() public view returns (bool) {\r\n\t\tbool outPeriod = now > endTime;\r\n\t\tbool outSale = reached ? true : false;\r\n\t\treturn outPeriod || outSale;\r\n\t}\r\n\r\n\t// @return true if presale has started\r\n\tfunction hasStarted() public view returns (bool) {\r\n\t\treturn now >= startTime;\r\n\t}\r\n\r\n\tfunction setRate(uint256 _rate) public onlyOwner returns (bool) {\r\n        require(rate > 0);\r\n\t\trequire (now >= startTime && now <= endTime);\r\n\t\trate = _rate;\r\n        return true;\r\n\t}\r\n\r\n\tfunction manageICOResult() public onlyOwner returns (bool) {\r\n\t\trequire(now > endTime);\r\n\t\tif(hardcap - remain > softcap){\r\n\t\t\ttransferTokenToInvestors();\r\n\t\t\towner.transfer(address(this).balance);\r\n\t\t\tskte.burn(remain);\r\n\t\t\tremain = 0;\r\n\t\t}else{\r\n\t\t\trefundFunds();\r\n\t\t}\r\n\r\n\t\temit ManageICOResult(now);\r\n\t\treturn true;\r\n\t}\r\n\r\n    function checkInvestorHoldingToken(address investor) public view returns (uint256){\r\n        require(investor != address(0));\r\n        return skte.balanceOf(investor);\r\n    }\r\n\r\n\tfunction kill() public onlyOwner{\r\n        selfdestruct(owner);\r\n    }\r\n}",
  "sourcePath": "E:/Working/work-F/Kapila/SKTE Token/contracts/SkteTokenIcoContract.sol",
  "compiler": {
    "name": "solc",
    "version": "0.4.24+commit.e67f0147.Emscripten.clang"
  },
  "schemaVersion": "3.0.0-beta.0",
  "updatedAt": "2018-09-15T15:06:56.211Z"
}